:020000040800F2
:10000000B0070020C5010008D1330008052600080C
:10001000952F00085906000841490008000000001B
:100020000000000000000000000000001147000870
:10003000B1090008000000007135000839490008C6
:10004000DF010008DF010008DF010008DF01000810
:10005000DF010008DF010008DF010008DF01000800
:10006000DF010008DF010008DF010008DF010008F0
:10007000DF010008DF010008DF010008DF010008E0
:10008000DF010008DF010008DF010008DF010008D0
:10009000DF010008DF010008DF010008DF010008C0
:1000A000DF010008DF010008DF010008DF010008B0
:1000B000DF010008DF010008DF010008DF010008A0
:1000C000DF010008DF010008DF010008DF01000890
:1000D000DF010008DF010008DF010008DF01000880
:1000E000DF010008DF010008DF01000800F002F86E
:1000F00000F058F814A696E8000CB244B344DA4570
:1001000001D100F04FF8BAE80F000FA696E83000D2
:10011000A5EB040504EB0607AAEB0704A7F101070A
:100120004FEA15154FEA3414A4F10104AC4201D38F
:1001300000F038F813F0010F18BFFB1A43F0010369
:1001400000F001F8DBE7184790700000B070000085
:10015000103A24BF78C878C1FAD8520724BF30C8F3
:1001600030C144BF04680C60704700007047000055
:100170000023002400250026103A28BF78C1FBD8B0
:10018000520728BF30C148BF0B607047642900F098
:100190009D80732900F02182002070471FB51FBD8C
:1001A00010B510BD00F01DFA1146FFF7F7FF04F07F
:1001B0004FFC00F03BFA03B4FFF7F2FF03BC00F082
:1001C00043FA00000948804709480047FEE7FEE778
:1001D000FEE7FEE7FEE7FEE7FEE7FEE7FEE7FEE7F7
:1001E00004480549054A064B704700003D49000890
:1001F000ED000008B0010020B0070020B00300208F
:10020000B00300200FB41CB5074B06AA7B44694617
:100210000090059800F0B7F90020694600F0C6F993
:100220001CBC5DF814FB00009D03000070B5044683
:1002300085690068C10601D5302600E02026C00788
:1002400007D070BDD4E9012130469047206A401C98
:1002500020626D1EF6D570BD70B5044685690078C4
:10026000C00707D170BDD4E9012120209047206A42
:10027000401C20626D1EF6D570BD70B50C4605465B
:10028000012A05D02878800600D5EA69002302E01B
:10029000012305E05B1C934202D2E05C0028F9D107
:1002A000A869E618C01AA861286A18442862284676
:1002B000FFF7BCFF04E0D5E9012114F8010B9047DA
:1002C000B442F8D32846FFF7C7FF70BD2DE9F041CF
:1002D0000646002410687529314616A510D0AFF3E4
:1002E0000080002802DA404213A507E031688A073F
:1002F00001D512A502E0490704D511A5012401E0AA
:10030000AFF3008000210A2206F1240709E0B0FBC8
:10031000F2FCB0FBF2F302FB1C00303078541846BC
:10032000491C0028F3D123462A463046BDE8F04157
:1003300000F0CBB8000000002D0000002B000000F2
:10034000200000002DE9F05F894604464FF0000AC6
:10035000DFF824B1FB44C0F820A02046E1688847BC
:1003600000287DD0252806D0D4E901219047206AB5
:10037000401C2062F1E700255F462046E16888477F
:100380002028064607DB312E05D2B81910F8200CBC
:1003900008B10543F1E7A80701D525F00405C4F825
:1003A0001CA00027C4F818A02A2E09D0304604F05B
:1003B00038FE38B304EB8708303EC8F8186019E0FF
:1003C00059F8041B204604EB87029161E1688847D5
:1003D000012F064618D1E069002820DA25F0200513
:1003E0001DE0D8F8180000EB800006EB4000303824
:1003F000C8F818002046E1688847064604F011FE58
:100400000028EED1012F0AD02E2E08D12046E16817
:1004100088477F1C0646022F45F02005C4DBA069F3
:10042000002803DA404245F00105A061E80701D049
:1004300025F01005A6B1A6F14100192802D82036F2
:1004400045F400654A463146204625604D46FFF793
:100450009DFE60B1012807D0ED1D25F0070000E0EA
:1004600007E000F1080978E705F1040975E730466F
:100470007AE7206ABDE8F09FD84C000040EA01030B
:10048000024630B59B0710D14FF0013400E008C29E
:1004900008C91D1B9D4315EAC41FF8D013F0FF01C6
:1004A00002F8011B0DD01B0AF8E711F8013B002BE5
:1004B00002F8013B05D011F8013B002B02F8013B8B
:1004C000F3D130BD7047704770472DE9F0470D46B6
:1004D00099469246044600F124080168880604D52E
:1004E000E06921F01001216000E00120A84201DD57
:1004F000471B00E00027A1697A1902EB0900081ADE
:10050000A0612078C00602D42046FFF78FFE0026A7
:1005100008E0D4E901211AF806009047206A401C3F
:10052000761C20624E45F4DB2078C0060AD52046B2
:10053000FFF77CFE06E0D4E9012130209047206AD5
:10054000401C2062381EA7F10107F4DC07E0D4E963
:10055000012118F805009047206A401C2062281EDF
:10056000A5F10105F3DC2046FFF776FE20780006B2
:1005700002D50220BDE8F0870120FBE701694A1C93
:1005800002610878704700B58FB0CDE901310021D4
:10059000059105497944CDE9031011466846FFF7F6
:1005A000D1FE0FB000BD0000E5FFFFFF0A6802F8B2
:1005B000010B0A60704710B5436913B1AFF30080B7
:1005C00001E0FFF75AFE012010BD127800F124016E
:1005D0000A7000224A700122EDE711684FF0FF32E5
:1005E000E9E7754600F02CF8AE460500694653462B
:1005F00020F00700854618B020B5FFF7F1FDBDE8F3
:1006000020404FF000064FF000074FF000084FF079
:10061000000BAC46ACE8C009ACE8C009ACE8C009C6
:10062000ACE8C00921F007018D46704710B50446BB
:10063000AFF300802046BDE81040FFF7BCBD0000CE
:10064000004870477800002001491820ABBEFEE743
:100650002600020070470000FEE700002DE9F04789
:1006600084B040F60048C4F201088A460646404677
:100670004FF4805100224FF0000900F08BFB8020E6
:1006800040F2541540EA4600C2F200058DF8090018
:1006900064240DF1090102AA28460123009401F007
:1006A00031FE0DF10B010DF10A02284601238DF8F0
:1006B0000B90009401F026FE9DF80A7040464FF41E
:1006C0008051012200F066FB40464FF48051002229
:1006D00027EA0A0700F05EFB7E2000EA46008DF85C
:1006E0000D000DF10D0103AA28460123009401F02D
:1006F00009FE0DF10F010DF10E02284601238DF8C0
:100700000F70009401F0FEFD40464FF4805101222D
:1007100000F040FB04B0BDE8F0870000F0B58BB0FE
:1007200040F20002C2F200022C2301FB032106ACBE
:10073000054605312046FFF7A1FE47F2B7110DF13E
:100740000E06C0F6000130462A46FFF75BFD40F278
:100750006C00C2F20000D0E900304FF6E0770025CF
:10076000CDE900071E200A213246029503F086FFDC
:100770004FF6FF760A201E214FF496721E23009634
:1007800003F006FA40F26406C2F20006D6E9003031
:1007900020A2CDE900070A202821029503F06EFF70
:1007A000D6E900301FA2CDE900070A203C210295BE
:1007B00003F064FFD6E900305021CDE900070A209C
:1007C0002246029503F05AFFD6E9003017A2CDE980
:1007D000000764206421029503F050FFD6E9003041
:1007E00047F27112CDE90007C0F6000214207D2106
:1007F000029503F043FFD6E9003047F26A12CDE9D3
:100800000007C0F60002DC207D21029503F036FFD0
:100810000BB0F0BD5374617475733A20456D7074FC
:10082000790000004E616D653A200000436F6E66EE
:1008300069726D203F00000070B584B040F6000082
:10084000C4F201004FF4004100F09EFA10B104B070
:1008500070BD00BF642000F07BF940F2D800C2F206
:10086000000041780529F2D8DFE801F0040404040F
:100870004C0400BF40F20001C2F2000100240C70E1
:10088000012141800471002003F01EFA40F26C0542
:10089000C2F20005D5E900304FF6E07647F231129A
:1008A000CDE90006C0F6000214201421029403F0E2
:1008B000E5FED5E9003047F29112CDE90006C0F619
:1008C00000028C203C21029403F0D8FED5E90030D0
:1008D00047F22012CDE90006C0F600021420642180
:1008E000029403F0CBFED5E9003047F21412CDE9B3
:1008F0000006C0F6000232208C21029403F0BEFEF6
:1009000004B070BD40F20001C2F2000100220A7082
:1009100001214180027104B0BDE8704004F012B8BA
:1009200070B584B040F60000C4F201004FF40041FD
:1009300000F02AFA10B104B070BD00BF40F2D80434
:10094000C2F20004257A012D0AD0002DF3D1002037
:1009500003F0BAF960780130C0B203F02BF822E05E
:100960000020002603F0B0F9607821780130C0B291
:1009700002F030FD40F26C00C2F20000D0E900301D
:100980004FF4FC6147F29812CDE90001C0F6000275
:1009900014206421E671029603F070FE40F200001C
:1009A000C2F20000067000202571607104B070BDB5
:1009B0007047000070B584B00138052800F2C68089
:1009C000DFE800F0047C405E22A000BF40F2640437
:1009D000C2F20004D4E900304FF6E07647F2791213
:1009E0000025CDE90006C0F600020A204621029546
:1009F00003F044FED4E9003047F2D012CDE90006FE
:100A0000C0F600020A2076E040F26404C2F200045C
:100A1000D4E900304FF6E07647F289120025CDE99F
:100A20000006C0F6000278207821029503F026FE29
:100A3000D4E9003047F2C312CDE90006C0F6000247
:100A400078207CE040F26404C2F20004D4E9003073
:100A50004FF6E07647F281120025CDE90006C0F698
:100A60000002E6204621029503F008FED4E900309A
:100A700047F2D012CDE90006C0F60002E6203AE0C7
:100A800040F26404C2F20004D4E900304FF6E0768C
:100A900047F285120025CDE90006C0F600020A20C3
:100AA0007821029503F0EAFDD4E9003047F2D01234
:100AB000CDE90006C0F600020A2040E040F26404DE
:100AC000C2F20004D4E900304FF6E07647F27D121E
:100AD0000025CDE90006C0F60002782046210295E7
:100AE00003F0CCFDD4E9003047F2D012CDE9000686
:100AF000C0F6000278205A21029503F0BFFD04B031
:100B000070BD00BF40F26404C2F20004D4E90030BA
:100B10004FF6E07647F28D120025CDE90006C0F6CB
:100B20000002E6207821029503F0A8FDD4E9003008
:100B300047F2D012CDE90006C0F60002E6208C2173
:100B4000029503F09BFD04B070BD00BF04B070BD02
:100B5000B0B5044600F024F9054640F25C00C2F24C
:100B600000000078611C18BF044400BF00F018F9B1
:100B7000401BA042FAD3B0BD2DE9F04F82B00E6801
:100B8000002E00F0FD8041F20042C4F20102042375
:100B900040F2004E904208BF03234FF6FF7CC4F2A0
:100BA000010E009300240123C1F2100C4FF0000A43
:100BB0004FF000094BE000BF41F20002C4F2010215
:100BC000009F904208BF022704F00C030F229A40B6
:100BD0002BEA020207FA03F34FEA9A051A4346F892
:100BE00025204E6840F20C45F202DEF8082054BF82
:100BF00022EA080242EA0802C4F20105CEF80820FF
:100C00002A68B30254BF22EA080242EA08022A60B4
:100C1000B303DEF8042054BF22EA080242EA0802C5
:100C2000F303CEF80420DEF800204FF0010354BF98
:100C300022EA080242EA0802CEF800200E680AF111
:100C4000010A36FA0AF204F1040400F0998003FA6A
:100C50000AFB16EA0B08F1D04E68664512DC122E2C
:100C600056D8DFE806F0350B4D49555555555555C5
:100C70005555555555555545510000BFD1F80C9067
:100C800046E000BF4FF6FF72C1F2210296420FDC30
:100C90000022C1F2110296421AD00022C1F21202C1
:100CA000964215D00022C1F22102964210D02FE0C8
:100CB0000022C1F2220296420AD00022C1F2310281
:100CC000964205D00022C1F23202964220D100BFE6
:100CD0008A684AB1012A14BFC0F814B0C0F810B035
:100CE0004FF0080914E000BF4FF0040910E000BF06
:100CF000CA6802F104090BE04FF0000908E000BFE8
:100D0000CA6802F1080903E0CA6802F10C0900BFD1
:100D100002462646B8F5807F24BF0432203E17687D
:100D20000F25B54027EA050509FA06F63543156093
:100D3000CA79D2067FF582AF41F21803C4F20203EA
:100D40001A68AEF57E7642F001021A601A6802F067
:100D500001020192019A2AF0030256F802B040F60D
:100D60000002C4F20102904208D040F60042C4F2F0
:100D7000010290427FF420AF012725E7002723E7F7
:100D800002B0BDE8F08F00008068084018BF012065
:100D900070470000002A08BF090401617047000085
:100DA00040F2AC10C2F200000068704740F25C00F4
:100DB00040F2AC11C2F20000C2F2000100780A68F1
:100DC000104408607047000080B542F20000C4F291
:100DD0000200016841F010010160032000F07AF880
:100DE0000F2000F005F800F027F8002080BD00007B
:100DF00070B540F25C06C2F2000640F2740132782F
:100E0000C2F200014FF47A730968B3FBF2F20446B0
:100E1000B1FBF2F1084601F0DFFB0F2C4FF00105AA
:100E200008D838B94FF0FF3021460022002500F0E5
:100E300025F87460284670BD82B041F21800C4F2F3
:100E400002000168022241F001010160016801F025
:100E5000010101910199416841F080514160406870
:100E600000F08050009000980420C4F20100016856
:100E700062F31A61016002B07047000010B54EF6CF
:100E80000C5CCEF2000CDCF80030C3F3022E8EF0C6
:100E90000704042C28BF0424BEF103034FF0FF3ED7
:100EA0000EFA04F438BF0023A14399400EFA03F36D
:100EB0009A43114300F00F0200F160430901043A24
:100EC00003F564436244002848BF02F10C03197023
:100ED00010BD00004EF60C51CEF200010A684FF62C
:100EE000FF031A4060F30A2242F0806040F0FD7078
:100EF000086070472020C4F20E2001210160704775
:100F0000012821D002280DD0102808D141F2040177
:100F1000C4F202010A6851F8040CC00134D4002064
:100F2000704700BF80B500F0C7F941F20401C4F278
:100F3000020109680222C1F3813102EB4101B0FBD9
:100F4000F1F0BDE88040704741F20400C4F20200B5
:100F5000C16940F202320A40B2F5817F04BF4FF40A
:100F60000040704701F44071B1F5407F18D0B1F5F1
:100F7000007F1CBF00207047006A49F6404180078F
:100F800001EAE070704700BFC2F3834015A3185C0C
:100F9000D2030DD440F60012C0F23D02504313E0DC
:100FA00050F8040C4FF22441800301EAE0707047CE
:100FB0000A6810A3C2F340429A5C41F20023C0F2D7
:100FC0007A03B3FBF2F250430968490248BF704705
:100FD0004AF6AB214000CAF6AA21A0FB010148084D
:100FE000704700BF02030405060708090A0B0C0D31
:100FF0000E0F1010010200002DE9F04182B00446EE
:10100000007841F21C06C007C4F202064AD03068DC
:101010005FEAC00808D4306840F080503060306823
:1010200000F080500190019847F20007C4F20007D9
:101030003868C00512D4386840F480703860FFF713
:10104000AFFE05463868C00508D4FFF7A9FE401B6F
:101050006428F7D9032002B0BDE8F081706810F46D
:10106000407012D0616801F4407188420DD0706800
:1010700040F24042C4F24222012320F44071136046
:101080000023C0071360716026D17068616820F486
:1010900040700843B8F1000F706003D4306820F04E
:1010A000805030602068810707D556F8181CA26868
:1010B00021F44041114346F8181CC00607D556F8E4
:1010C000180CE16820F48000084346F8180C002052
:1010D00002B0BDE8F08100BFFFF762FE054641F2B5
:1010E000883700BF70688007CFD4FFF759FE401BD8
:1010F000B8424FF00300F5D9EAE70000002804BF2A
:10110000012070472DE9F04381B042F20008C4F29B
:1011100002080446D8F800000D4600F0070081429E
:101120000CD9D8F8000020F007002843C8F80000C8
:10113000D8F8000000F00700A8426CD1206841F206
:1011400004098107C4F2020917D5410705D5D9F86A
:10115000001041F4E061C9F80010010705D5D9F885
:10116000001041F46051C9F80010D9F80010A268CD
:1011700021F0F0011143C9F80010C00742D1D8F89E
:10118000000000F0070085420CD2D8F8000020F0E3
:1011900007002843C8F80000D8F8000000F0070056
:1011A000A84238D12068410707D5D9F80010E26875
:1011B00021F4E0611143C9F80010000708D5D9F8FF
:1011C0000000216920F4605040EAC100C9F8000025
:1011D000D9F8002002F00C00082841F20020C0F2EB
:1011E0007A004DD147F20413C2F38341C0F60003E5
:1011F000595CD20338D440F60010C0F23D00484399
:101200003EE000BF606859F8041C022808D001289D
:1012100026D1890306D4012001B0BDE8F08300BFC8
:101220008901F8D5D9F8001021F003010843C9F865
:101230000000FFF7B5FD064641F28837D9F80000F7
:10124000616800F00C00B0EB810F98D0FFF7A8FDAB
:10125000801BB842F2D9032001B0BDE8F08300BF83
:101260008907D8D5DEE700BFD9F8002047F202137E
:10127000C2F34042C0F600039A5C4843B0FBF2F070
:10128000D9F8001045F24102C1F30311C0F6000283
:10129000515C40F2740220FA01F140F26000C2F2A7
:1012A00000000068C2F200021160FFF7A1FD0020FB
:1012B00001B0BDE8F083000040F2740041F2040187
:1012C000C2F20000C4F202010068096845F251024E
:1012D000C1F3C221C0F60002515CC8407047000053
:1012E000002804BF012070472DE9F04182B0044678
:1012F000007841F20006C007C4F202060CD0706804
:1013000000F00C00042840F081803068800303D591
:101310006068002800F04681207880071BD570683F
:1013200010F00C0F09D0706800F00C00082840F095
:1013300087807068C00300F183803068800703D520
:101340002069012840F02E813068616920F0F800A2
:1013500040EAC10030602078000713D420784007AD
:101360002CD4E569002D00F01881706800F00C00A5
:10137000082840F0A780012D40F00481012002B030
:10138000BDE8F081A069002800F084800020C4F24C
:1013900042200121C0F88014FFF702FD054600BF7E
:1013A000706A800700F1B280FFF7FAFC401B022848
:1013B000F6D9032002B0BDE8F08100BFF0695FEA12
:1013C000C00808D4F06940F08050F061F06900F086
:1013D00080500090009847F20007C4F20007386878
:1013E000C00549D4386840F480703860FFF7D8FCF5
:1013F000054600BF3868C0053ED4FFF7D1FC401B4E
:101400006428F7D9032002B0BDE8F081706800F0CD
:101410000C00082803D17068C0033FF576AF6168FF
:101420003068002900F00C81B1F5A02F00F0008198
:10143000B1F5803F40F01A8140F480301CE100BFDC
:101440002069002840F20000C4F2422000F08880A9
:1014500001210160FFF7A4FC054600BF306880074A
:101460003FF572AFFFF79CFC401B0228F6D9032022
:1014700002B0BDE8F08100BFE168306A002900F0E9
:101480009D80052900F09280012940F0AF8040F056
:101490000100B1E00020C4F242200021C0F8801415
:1014A000FFF77EFC054600BF706A80077FF556AFE8
:1014B000FFF776FC401B0228F6D9032002B0BDE8F6
:1014C000F08100BF0027C4F2422700203866FFF7F2
:1014D00067FC022D05460DD13068800140F1DE80A9
:1014E000FFF75EFC401B02284FF00300F4D902B066
:1014F000BDE8F081306880014FD5FFF751FC401BFB
:1015000002284FF00300F5D9F1E700BF40F2740064
:10151000C2F20000006844F6D351C1F26201A0FBA0
:101520000101480A019000BF00BF0198411E002838
:1015300001913FF413AF00BF0198411E00280191B3
:101540003FF40CAF00BF0198411E002801913FF409
:1015500005AF00BF0198411E00280191E4D1FDE6CE
:1015600000210160FFF71CFC054600BF30688007C2
:101570007FF5F1AEFFF714FC401B02284FF003008B
:10158000F4D9B4E77068216A00F480328A4209D144
:10159000616A00F47010884204D1002002B0BDE8F6
:1015A000F08100BF012002B0BDE8F08140F00400EE
:1015B0003062306A40F001001EE000BF20F0010000
:1015C0003062306A20F004003062FFF7E9FB054624
:1015D00041F28837306A800720D5FFF7E1FB401BD6
:1015E000B8424FF00300F5D981E700BF20F00100B9
:1015F0003062306A20F004003062FFF7D1FB05460C
:1016000041F28837306A800708D4FFF7C9FB401BD6
:10161000B842F7D9032002B0BDE8F081B8F1000F5D
:101620003FF59FAEF06920F08050F06199E600BF71
:1016300040F480203060306840F480301CE000BF0F
:1016400020F480303060306820F480203060FFF774
:10165000A7FB0546306880037FF55EAEFFF7A0FB71
:10166000401B64284FF00300F4D940E720F4803099
:101670003060306820F480203060FFF791FB054631
:10168000306880033FF548AEFFF78AFB401B6428B3
:10169000F6D9032002B0BDE8F08100BF206AB0F5A2
:1016A000803F05D17168A26821F400311143716057
:1016B0007168626A21F4741111430843706001205B
:1016C0003866FFF76DFB0446306880013FF565AF73
:1016D000FFF766FB001B02284FF00300F4D906E772
:1016E00070B582B0034600208DF80600ADF8040006
:1016F000002B4FF0010018BF002901D102B070BDCE
:1017000014460D4601A9184600221E4600F04EF868
:1017100010B1012002B070BD96F80CC0727BB07B96
:10172000F37B85F800C0EB706A70A870D4B32946CB
:10173000A3F10A05ECB24FF0CD0C04FB0CF4E40A63
:1017400004EB8406A5EB4605A2F10A0605EB04149A
:10175000F5B205FB0CF55FFA83FEED0ABEF1090F49
:1017600088BF04F1100305EB8504CB70D3B2A6EB60
:10177000440606EB0516092BA0F10A0388BF06F103
:101780001002DEB206FB0CF6F60A06EB86054A707E
:10179000C2B2A3EB450303EB0613092A88BF03F18A
:1017A00010008870002002B070BD00002DE9F047E5
:1017B000064600284FF0010000F0AE800C460029DC
:1017C00008BFBDE8F08730684168490700F1E08054
:1017D00091468269C169836992B29BB29A4203D1F0
:1017E00089B241EA024103E0C16989B241EA034199
:1017F0004BF2C532C9F2A212A1FB0223DA0A4FF45E
:10180000616302FB131348F689059FB26F437D0D98
:1018100065702D01A5EB5757A3EB870345F28017A1
:10182000C0F20107B942A37036D344F20753CCF299
:101830002E23A1FB03374AF6AB23C0F6AA23A2FB53
:10184000033505EB4503A2EBC3022270026A406A2E
:101850004FEA174880B240EA0240451A98BF4FF05D
:10186000FF35421C4AF68062CFF6FE7208FB021A70
:1018700008BF0546FFF794FA074600BF3068416885
:1018800089064BD4FFF78CFAC01BB0F57A7FF5D9E7
:101890000120BDE8F08700BF2270B9F1000F3AD0F7
:1018A00021784FF0CD0CA1F10A07FEB206FB0CF631
:1018B000F60A627806EB8605CBB2A7EB450707EB85
:1018C0000617092BA2F10A03A07888BF07F11001BF
:1018D000DFB207FB0CF7FF0A07EB87062170D1B2D6
:1018E000A3EB460303EB0713092988BF03F110029A
:1018F0006270A0F10A02D3B203FB0CF3DB0A03EB24
:101900008307C1B2A2EB470202EB0312092988BF89
:1019100002F11000A0700020BDE8F087416841F09E
:10192000100141604FEA1A4181611FFA8AF1C161D9
:10193000416821F010014160FFF732FA074600BF0D
:1019400030684068800609D4FFF72AFAC01BB0F55A
:101950007A7FF5D90120BDE8F08700BF681C11D05F
:101960005544FFF71DFA074630684168890613D4CD
:10197000FFF716FAC01BB0F57A7F4FF00100F3D9DC
:10198000CAE700BF30464FF0FF3101F05FFF08B3F8
:101990000120BDE8F08700BF416841F010014160BF
:1019A000290C0162A9B24162416821F01001416035
:1019B000FFF7F6F9074600BF30684068800609D493
:1019C000FFF7EEF9C01BB0F57A7F4FF00100F3D9B5
:1019D000A2E700BF3046414601F0CCFDB9F1000F4F
:1019E0007FF45EAF97E70000002804BF0120704736
:1019F00070B50446407C20B900202074204600F0D9
:101A00006BF8022060742068416821F00801416091
:101A1000FFF7C6F9064600BF20684568FFF7C0F922
:101A2000290705460ED4A81BB0F57A7FF4D901200A
:101A30000421617470BD00BFFFF7B2F9401BB0F51F
:101A40007A7FF4D8216848688006F5D5486846F65C
:101A50002C4240F0100048604868C4F2000220F0B8
:101A600007004860A06818B1536823F00103536071
:101A7000136823F46073184310606068421C05D13A
:101A80000120FFF73DFA18B321680138C0F3034283
:101A900080B28A60C860486820F010004860FFF794
:101AA0007FF9054620684068800607D4FFF778F97B
:101AB000401BB0F57A7FF5D9B9E700BF40F20111BC
:101AC0000020A4F80D100121E073617470BD00BF07
:101AD00004210120617470BD006842F60001C4F267
:101AE0000001884218BF704780B582B0FFF702FA44
:101AF00041F21C00C4F20200016841F00061016083
:101B00000068012100F000600190019840F23C4023
:101B1000C4F24220016002B0BDE88040704700007E
:101B200070B582B0044600208DF80600ADF80400C0
:101B3000002C4FF0010018BF002901D102B070BD88
:101B4000207C01284FF00200F8D00123237401AB60
:101B5000607420460D46194616460022FFF726FE01
:101B600000284FF00100E9D132469DF804009DF8AD
:101B700005604FF4616329469DF806505843C6EB53
:101B8000061600EB86000E782844CAB13209A2EB93
:101B9000820206EB4202D2B25A434B788E78190980
:101BA000A1EB810103EB4101C9B2C1EB011102EBD1
:101BB00081013209A2EB820206EB420207E000BF7C
:101BC00073434E788A78C6EB061103EB8101D2B2DB
:101BD0008E1806F58031864238BF01F5A346FFF71F
:101BE000DFF8054620684168890607D4FFF7D8F872
:101BF000401BB0F57A7FF5D91AE000BF416841F08B
:101C000010014160310C0162B1B24162416821F0C2
:101C100010014160FFF7C4F8054600BF2068406826
:101C2000800609D4FFF7BCF8401BB0F57A7FF5D9E0
:101C30000120042102E000BF002001216174002185
:101C4000217402B070BD0000F0B581B004460028D8
:101C50004FF0010018BF002902D101B0F0BD00BF54
:101C6000207C01284FF00200F7D001232374607418
:101C7000CB788AB11809A0EB800003EB40034878C9
:101C80008A780709A7EB870700EB47071009A0EB45
:101C9000800002EB400001E04F788878FEB2022E0F
:101CA000DAB2E3736773A0730AD817237B43DBB2FE
:101CB00039277B435F0A02F2CF7340F2D47609E002
:101CC00048F63E67C0F20207774302F5FA633F0C1D
:101CD00040F2D276C0B21044304440F21F5500EBBF
:101CE00093005D433844A0EB554000EBD54082B2F1
:101CF00042F293435A43A0EB12439BB25B0803EBBF
:101D000012429208A2EBC2020244206822730A70B7
:101D10008269C169836992B29BB29A4204D188B246
:101D200040EA024004E000BFC06980B240EA0340DC
:101D300045F69071C0F2010188424FF000061BD3B6
:101D400044F20751CCF22E21A0FB0112110C40F2FB
:101D5000A3225143A0EBC117FFF722F8054600BFAD
:101D60002068416889060DD4FFF71AF8401BB0F5CA
:101D70007A7FF5D93AE000BF012100206174267412
:101D800001B0F0BD416841F010014160390C816142
:101D9000B9B2C161416821F010014160FFF700F85C
:101DA000054600BF20684168890607D4FEF7F8FFA2
:101DB000401BB0F57A7FF5D918E000BF016A406A90
:101DC00080B240EA0140B84234D200F5803000F5DC
:101DD000A347FEF7E5FF05462068416889060BD456
:101DE000FEF7DEFF401BB0F57A7FF5D90120042114
:101DF0006174267401B0F0BD416841F0100141608A
:101E0000390C0162B9B24162416821F010014160B0
:101E1000FEF7C6FF05462068406880060AD4FEF734
:101E2000BFFF411B0120B1F57A7F4FF00401F2D9C9
:101E3000A4E700BF002001216174267401B0F0BD49
:101E400070B5044600284FF0010018BF002901D1E9
:101E500070BD00BF207C01284FF0020008BF70BD9C
:101E60000123237460740878D2B10209A2EB8202C4
:101E700000EB4200C0B24FF4616250434A78897867
:101E80001309A3EB830302EB4302D2B2C2EB0212AB
:101E900000EB82000A09A2EB820201EB420108E09A
:101EA0004FF4616250434A788978C2EB021200EB2A
:101EB0008200C9B24618FEF773FF054620684168E4
:101EC000890607D4FEF76CFF401BB0F57A7FF5D981
:101ED00054E000BF416841F010014160310C816164
:101EE000B1B2C161416821F010014160FEF758FFB5
:101EF000054600BF20684168890607D4FEF750FFF9
:101F0000401BB0F57A7FF5D938E000BF416821F079
:101F100005014160016A406A80B240EA0140B04276
:101F200032D200F5803000F5A346FEF739FF0546B2
:101F300020684168890607D4FEF732FF401BB0F5E0
:101F40007A7FF5D91AE000BF416841F01001416085
:101F5000310C0162B1B24162416821F0100141606F
:101F6000FEF71EFF054600BF2068406880060BD4C0
:101F7000FEF716FF401BB0F57A7FF5D9012004214A
:101F800061740021217470BD002001216174002161
:101F9000217470BD70B528B1416A29B10021016179
:101FA000142106E0012070BD4168B1F5827F02D0A6
:101FB0001C21002242500026866290F8511029B957
:101FC00080F85060054600F039F82846022180F874
:101FD000511090E82E0002F482720C6803F404435E
:101FE00024F040040C601A4405F4006305691A44A7
:101FF00005F0020345691A4405F001038569C469C7
:102000001A4405F400731A4404F03803046A1A44AD
:1020100004F08003846A1A4304F400531A430A60EC
:10202000042202EA15424A60CA6922F40062CA61C7
:102030000121466580F85110304670BD70B586B0FC
:10204000006843F60001C4F2000188424FF000012D
:10205000CDE90411CDE9021122D043F20001C4F20E
:10206000010188424ED141F21800C4F20200016819
:1020700040F6000441F4805101600168402601F4FB
:102080008051019101990168C4F2010441F00401F9
:102090000160006800F0040001900198A0201FE09A
:1020A00041F21800C4F2020041684FF4804641F446
:1020B00080414160416801F48041019101990168CA
:1020C00041F008010160006800F0080001900198EB
:1020D00040F60000C4F2010000F580644FF4204097
:1020E000029002200390032002AD0590204629466D
:1020F000FEF742FD0020CDE9030020462946029666
:10210000FEF73AFD06B070BD2DE9F04182B01D46E4
:1021100016460F460446FEF743FE94F85110012977
:102120000ED18046002F4FF0010018BF002E03D1C2
:1021300002B0BDE8F08100BF94F85000012803D13F
:10214000022002B0BDE8F081012084F85000032095
:10215000002184F8510061652763A686E686A163A5
:10216000A187E187A0682164B0F5004F2068616411
:1021700007D1016821F040010160016841F480410C
:1021800001600168490603D4016841F04001016023
:102190006168731EE268B1FA81F1B3FA83F3490909
:1021A0005B09B2F5006F41EA030139D131B137F86B
:1021B000021BC1602763E08E0138E086E08E0028B4
:1021C00070D0681C0BD11AE0216B31F8022BC26071
:1021D0002163E08E0138E086E08E002862D020681E
:1021E00081688907F0D4FEF7DBFDA0EB0800A84268
:1021F000F2D338E0FEF7D4FDE08E002852D02068FC
:1022000081688907F6D5216B31F8022BC260216302
:10221000E08E0138E086E08E0028F0D142E000BF79
:1022200039B139780173206B01302063E08E0138B9
:10223000E086E08EB0B3681C0BD123E0216B0978F7
:102240000173206B01302063E08E0138E086E08E60
:1022500040B3206881688907F0D4FEF7A1FDA0EBA8
:102260000800A842F3D3012084F85100002084F82C
:102270005000032002B0BDE8F08100BFFEF790FDE2
:10228000E08E78B1206881688907F7D5216B0978DD
:102290000173206B01302063E08E0138E086E08E10
:1022A0000028EFD12046022101222B46CDF80080E4
:1022B00001F0DEFB40B92046802100222B46CDF8FC
:1022C000008001F0D5FB28B1606D40F02000606512
:1022D00020206065A06838B9002001902068C1689E
:1022E0000191806801900198012084F8510000203C
:1022F00084F85000606D002818BF012002B0BDE8CE
:10230000F08100002DE9F04383B01E4615460F46CC
:102310000446FEF745FD94F851108146012909D184
:10232000002F4FF0010018BF002D0FD103B0BDE802
:10233000F08300BF6068B0F5827F0DD104294FF0B3
:102340000200F3D1A1680029EAD0EFE7002EEDD01A
:1023500094F85000012803D1022003B0BDE8F083B7
:10236000012084F8500094F85100002104281CBF7B
:10237000052084F851006165A563E687A687276379
:10238000E6862068A686216461640168490603D454
:10239000016841F0400101606168731EE268B1FAB2
:1023A00081F1B3FA83F3DDF8288049095B09B2F5BE
:1023B000006F41EA030165D131B137F8021BC160FA
:1023C0002763E08E0138E086012518F1010032D143
:1023D00002E000BFFEF7E4FCE08E18B9E08F0028B1
:1023E00000F0B8802068816889070CD5E18E51B172
:1023F000012D08D1216B002531F8022BC260216329
:10240000E18E0139E1868168C907E3D0E18F0029B7
:10241000E0D0C068A16B012521F8020BA163E08F19
:102420000138E087D6E700BFFEF7BAFCA0EB090051
:10243000404580F0AF80E08E18B9E08F002800F0B2
:1024400089802068816889070CD5E18E51B1012D02
:1024500008D1216B002531F8022BC2602163E18E87
:102460000139E1868168C907DED0E18F0029DBD020
:10247000C068A16B012521F8020BA163E08F013830
:10248000E087D1E739B139780173206B01302063DF
:10249000E08E0138E086012518F1010032D101E01B
:1024A000FEF77EFCE08E10B9E08F002852D0206845
:1024B000816889070ED5E18E61B1012D0AD1216BAA
:1024C000002509780173216B206801312163E18EB9
:1024D0000139E1868168C907E2D0E18F0029DFD0A8
:1024E000C068A16B01250870A06B0130A063E08F6C
:1024F0000138E087D4E700BFFEF752FCA0EB0900EB
:10250000404547D2E08E08B9E08F18B32068816853
:1025100089070ED5E18E61B1012D0AD1216B00250D
:1025200009780173216B206801312163E18E013943
:10253000E1868168C907DFD0E18F0029DCD0C0685F
:10254000A16B01250870A06B0130A063E08F0138FA
:10255000E087D1E72046022101224346CDF80090D2
:1025600001F086FA40B92046802100224346CDF88A
:10257000009001F07DFAB8B1606D40F02000606518
:1025800020206065002084F85000012003B0BDE8E1
:10259000F08300BF012084F85100002084F850002F
:1025A000032003B0BDE8F083A06838B90020029092
:1025B0002068C1680291806802900298012084F826
:1025C0005100002084F85000606D002818BF0120E1
:1025D00003B0BDE8F0830000411E0020B0EB116F96
:1025E0001CBF012070474EF21002CEF20002516073
:1025F0004EF62351CEF20001F0230B7007219060BC
:1026000011607047FEE700002DE9F04184B040F60C
:102610000045C4F20105044628464FF480510022CB
:102620004FF00008FEF7B6FB40F254161A20C2F233
:1026300000068DF80D0064270DF10D0103AA304648
:1026400001230097FFF75EFE0DF10F010DF10E0261
:10265000304601238DF80F800097FFF753FE284680
:102660004FF480510122FEF795FB42F29300208047
:1026700002AF0C20214602222346009700F096F973
:1026800010B104B0BDE8F08120786178A278E378D9
:102690004840504021795840401A18BF012040005E
:1026A00004B0BDE8F0810000F0B583B040F600440E
:1026B000C4F2010420464FF480510122FEF76AFB68
:1026C00020464FF400610122FEF764FB20464FF4E0
:1026D000805100220027FEF75DFB40F254150220D6
:1026E000C2F200058DF80B0064260DF10B010DF10F
:1026F0000A02284601230096FFF704FE0F208DF8FA
:102700000B000DF10B010DF10A0228460123009682
:10271000FFF7F8FD20464FF480510122FEF73AFB07
:1027200020464FF480510022FEF734FB54208DF8F0
:102730000B000DF10B010DF10A0228460123009652
:10274000FFF7E0FD8D208DF80B000DF10B010DF171
:102750000A02284601230096FFF7D4FD20464FF4D5
:1027600080510122FEF716FB20464FF480510022D3
:10277000FEF710FB56208DF80B000DF10B010DF14B
:102780000A02284601230096FFF7BCFD3E208DF883
:102790000B000DF10B010DF10A02284601230096F2
:1027A000FFF7B0FD20464FF480510122FEF7F2FA08
:1027B00020464FF480510022FEF7ECFA5A208DF8A3
:1027C0000B000DF10B010DF10A02284601230096C2
:1027D000FFF798FD1E208DF80B000DF10B010DF198
:1027E0000A02284601230096FFF78CFD20464FF48D
:1027F00080510122FEF7CEFA20464FF4805100228C
:10280000FEF7C8FA58208DF80B000DF10B010DF101
:102810000A02284601230096FFF774FD0DF10B0113
:102820000DF10A02284601238DF80B700096FFF780
:1028300069FD20464FF480510122FEF7ABFA204695
:102840004FF480510022FEF7A5FA2A208DF80B00E4
:102850000DF10B010DF10A02284601230096FFF746
:1028600051FD40208DF80B000DF10B010DF10A0216
:10287000284601230096FFF745FD20464FF480517E
:102880000122FEF787FA20464FF480510022FEF71E
:1028900081FA22208DF80B000DF10B010DF10A02D7
:1028A000284601230096FFF72DFD3D208DF80B00F3
:1028B0000DF10B010DF10A02284601230096FFF7E6
:1028C00021FD20464FF480510122FEF763FA204695
:1028D0004FF480510022FEF75DFAA8208DF80B001E
:1028E0000DF10B010DF10A02284601230096FFF7B6
:1028F00009FD0DF10B010DF10A02284601238DF8A7
:102900000B700096FFF7FEFC20464FF48051012229
:10291000FEF740FA1420032101F0AEFF03B0F0BD32
:102920002DE9F04184B040F60048C4F201080C469D
:10293000054640464FF480510022FEF72BFA40F244
:1029400054171A20C2F200078DF80D0064260DF10D
:102950000D0103AA384601230096FFF7D3FC072098
:102960008DF80F000DF10F010DF10E023846012315
:102970000096FFF7C7FC40464FF480510122FEF756
:1029800009FA02AF0C202146012223462570009748
:1029900000F00CF802991029014618BF0221002806
:1029A00018BF0221084604B0BDE8F0812DE9F04FC0
:1029B00087B017460C2888460293049006D00E284C
:1029C00008D111200590122007E000BF31200590AA
:1029D000772002E001200590002040F60045C4F277
:1029E0000105039000F1800428464FF48051002235
:1029F0004FF00009FEF7CEF940F2541A0420C2F25B
:102A0000000A8DF81B0064260DF11B010DF11A025E
:102A1000504601230096FFF775FC0DF11B010DF1E7
:102A20001A02504601238DF81B400096FFF76AFCFE
:102A300028464FF480510122FEF7ACF90420802192
:102A4000FDF70CFE0A20802101F016FF28464FF406
:102A500080510022FEF79EF902208DF81B000DF137
:102A60001B010DF11A02504601230096FFF74AFCA4
:102A70000DF11B010DF11A02504601238DF81B9038
:102A80000096FFF73FFC28464FF480510122FEF7E5
:102A900081F977B340F25419A8F1010AC2F2000992
:102AA0000DF11B080DF11A041AF801BF28464FF466
:102AB000805100226426FEF76DF912208DF81B006C
:102AC00048464146224601230096FFF71BFC642638
:102AD00048464146224601238DF81BB00096FFF779
:102AE00011FC28464FF480510122FEF753F9013FB3
:102AF000DAD128464FF480510022FEF74BF940F21C
:102B000054140220C2F200048DF81B000DF11B01C9
:102B10000DF11A02204601230096FFF7F3FB049FF4
:102B20000DF11B010DF11A02204601238DF81B70D7
:102B30000096FFF7E7FB28464FF480510122FEF78D
:102B400029F90C2F03D10D20802101F095FE4FF6BD
:102B5000300740F2541BCFF6FF774FF088084FF054
:102B6000640AC2F2000B0DF11B060DF11A0400BF3E
:102B700028464FF480510022FEF70CF958463146A2
:102B8000224601238DF81B80CDF800A0FFF7BAFB89
:102B900000208DF81B005846314622460123CDF80F
:102BA00000A0FFF7AFFB9DF81A9028464FF4805124
:102BB0000122FEF7EFF8013780F0D880059810EA7F
:102BC000090FD5D00D208021FDF748FD28464FF490
:102BD000805100220027FEF7DDF840F254148C20CB
:102BE000C2F200048DF81B0064260DF11B010DF1EB
:102BF0001A02204601230096FFF784FB0DF11B010A
:102C00000DF11A02204601238DF81B700096FFF784
:102C100079FB9DF81A4028464FF480510122FEF7B7
:102C2000B9F814F01B0F40F0A5800398049900EA4E
:102C300009000C2900F0010040F09D800590284615
:102C40004FF4805100220026FEF7A4F840F25419F8
:102C50009420C2F200090DF11A0B8DF81B006424B8
:102C60000DF11B0148465A46012300944FF0010A1A
:102C7000FFF748FB0DF11B010DF11A024846012335
:102C80008DF81B600094FFF73DFB9DF81A802846E5
:102C90004FF480510122FEF77DF828464FF4805111
:102CA0000022FEF777F898208DF81B000DF11B012C
:102CB0000DF11A02484601230094FFF723FB0DF1A2
:102CC0001B010DF11A02484601238DF81B60009488
:102CD000FFF718FB9DF81A6028464FF48051012237
:102CE000FEF758F816F0070040EAC8001099A0F166
:102CF000080008BF4FEAC8000860B8F1010F98BF8C
:102D0000D046B8F1100F28BF4FF0100802984FF0CE
:102D1000920A461E28464FF480510022FEF73AF8E8
:102D20000DF11B07484639465A4601238DF81BA072
:102D30000094FFF7E7FA00208DF81B00484639465B
:102D40005A4601230094FFF7DDFA9DF81A702846D1
:102D50004FF480510122FEF71DF8B8F1010806F882
:102D6000017FD7D1059807B0BDE8F08F0D208021F5
:102D7000FDF774FC022007B0BDE8F08F2DE9F041AB
:102D80008EB040F26C00C2F20000D0E900304FF685
:102D9000E07747F250120026CDE90007C0F60002A6
:102DA0003C200A21029601F069FC40F2D800C2F2F0
:102DB000000000F110040DF1350120460022FEF75D
:102DC000F5FC0DF1310120460022FEF789FC9DF84B
:102DD00035209DF836309DF837500DF1220864A15A
:102DE00040460095FDF70EFA9DF832309DF83320ED
:102DF0009DF834400DF1130561A128460094FDF7BC
:102E000001FA40F26404C2F20004D4E90030232144
:102E1000CDE900070A204246029601F02FFCD4E9D2
:102E200000302321CDE90007C8202A46029601F090
:102E300025FC4FF6FF750A203C214FF496723C2387
:102E4000009500F0A5FED4E9003047F27912CDE9F3
:102E50000007C0F600020A204621029601F00EFC8F
:102E6000D4E9003047F2D015C0F60005CDE90007DF
:102E70000A205A212A46029601F000FCD4E90030CB
:102E800047F27D12CDE90007C0F600027820462106
:102E9000029601F0F3FBD4E900305A21CDE9000796
:102EA00078202A46029601F0E9FBD4E9003047F287
:102EB0008112CDE90007C0F60002E6204621029605
:102EC00001F0DCFBD4E900305A21CDE90007E6200F
:102ED0002A46029601F0D2FBD4E9003047F285126F
:102EE000CDE90007C0F600020A207821029601F021
:102EF000C5FBD4E900308C21CDE900070A202A4621
:102F0000029601F0BBFBD4E9003047F28912CDE90B
:102F10000007C0F6000278207821029601F0AEFB8F
:102F2000D4E9003047F2C312CDE90007C0F6000231
:102F300078208C21029601F0A1FBD4E9003047F201
:102F40008D12CDE90007C0F60002E6207821029636
:102F500001F094FBD4E900308C21CDE90007E62094
:102F60002A46029601F08AFB0EB0BDE8F08100BF50
:102F7000253032643A253032643A2530326400001C
:102F8000253032642F253032642F323025303264C0
:102F900000000000FEE70000B0B584B040F6000479
:102FA000C4F2010420464FF48061FDF7EDFE0028D5
:102FB00049D140F2D805C2F20005E879012813D0C2
:102FC00068BB40F26C00C2F20000D0E900304FF65E
:102FD000E07147F298124FF0000CCDE90001C0F605
:102FE00000021420642111E040F26C00C2F20000E3
:102FF000D0E900304FF6E07147F2A7124FF0000C15
:10300000CDE90001C0F6000214208221CDF808C0ED
:1030100001F034FBE879002804BF0120E87140F298
:103020006C00C2F20000D0E900304FF4FC6147F2BE
:10303000A7120025CDE90001C0F60002142082216C
:10304000029501F01BFB20464FF40061FDF79CFE4A
:1030500000281CBF04B0B0BD40F2D804C2F2000486
:10306000E07940F26C050128C2F2000510D018BBCF
:10307000D5E900304FF6E07147F298124FF0000C9E
:10308000CDE90001C0F60002142064210EE000BF6B
:10309000D5E900304FF6E07147F2A7124FF0000C6F
:1030A000CDE90001C0F6000214208221CDF808C04D
:1030B00001F0E4FAE079A8B1411ED5E900300A0632
:1030C000E17111D04FF4FC6147F2A7120025CDE960
:1030D0000001C0F6000214208221029501F0CEFA10
:1030E00004B0B0BDD5E900304FF4FC6147F298124E
:1030F0000025CDE90001C0F60002142064210295EC
:1031000001F0BCFA04B0B0BDB0B584B040F6000424
:10311000C4F2010420464FF48061FDF735FE00281B
:1031200049D140F2D805C2F20005A879012813D090
:1031300068BB40F26400C2F20000D0E900304FF6F4
:10314000E07147F271124FF0000CCDE90001C0F6BA
:103150000002142011E000BF40F26400C2F200003F
:10316000D0E900304FF6E07147F26A124FF0000CE0
:10317000CDE90001C0F60002DC207D21CDF808C0B9
:1031800001F07CFAA879002804BF0120A87140F260
:103190006400C2F20000D0E900304FF4FC6147F255
:1031A0006A120025CDE90001C0F60002DC207D2175
:1031B000029501F063FA20464FF40061FDF7E4FD4B
:1031C00000281CBF04B0B0BD40F2D804C2F2000415
:1031D000A07940F264050128C2F200050ED008BBB8
:1031E000D5E900304FF6E07147F271124FF0000C54
:1031F000CDE90001C0F6000214200CE0D5E9003052
:103200004FF6E07147F26A124FF0000CCDE9000171
:10321000C0F60002DC207D21CDF808C001F02EFAB6
:10322000A07988B1411ED5E900300A06A1710DD000
:103230004FF4FC6147F26A120025CDE90001C0F6A7
:103240000002DC200CE000BFD5E900304FF4FC6147
:1032500047F271120025CDE90001C0F600021420EA
:103260007D21029501F00AFA04B0B0BDB0B584B07A
:1032700040F60004C4F2010420464FF48061FDF7DB
:1032800083FD002849D140F2D805C2F20005287A12
:10329000012813D068BB40F26400C2F20000D0E9FC
:1032A00000304FF6E07147F271124FF0000CCDE99B
:1032B0000001C0F60002142011E000BF40F26400DB
:1032C000C2F20000D0E900304FF6E07147F26A1216
:1032D0004FF0000CCDE90001C0F60002DC207D219A
:1032E000CDF808C001F0CAF9287A002804BF0120EF
:1032F000287240F26400C2F20000D0E900304FF4BE
:10330000FC6147F26A120025CDE90001C0F6000217
:10331000DC207D21029501F0B1F920464FF40061D7
:10332000FDF732FD00281CBF04B0B0BD40F2D80448
:10333000C2F20004207A40F264050128C2F20005BE
:103340000ED008BBD5E900304FF6E07147F271129C
:103350004FF0000CCDE90001C0F6000214200CE093
:10336000D5E900304FF6E07147F26A124FF0000CD9
:10337000CDE90001C0F60002DC207D21CDF808C0B7
:1033800001F07CF9207A88B1411ED5E900300A06A7
:1033900021720DD04FF4FC6147F26A120025CDE98D
:1033A0000001C0F60002DC200CE000BFD5E90030CF
:1033B0004FF4FC6147F271120025CDE90001C0F61F
:1033C000000214207D21029501F058F904B0B0BD2F
:1033D000FEE700002DE9F0478CB006460020894644
:1033E000002700F071FC47F2B7110DF12608C0F676
:1033F000000140463246FCF705FF40F26C0AC2F27B
:10340000000ADAE900304FF6E074CDE900041E202E
:103410000A214246029701F031F94FF6FF750A2062
:103420001E214FF496721E23009500F0B1FBDAE9DD
:1034300000303EA2CDE900041E203C21029701F09D
:103440001DF9DAE900303DA2CDE900041E20642117
:10345000029701F013F9DAE900303BA2CDE900044C
:103460001E209621029701F009F94FF4FA60FDF74A
:103470006FFB002000F028FCDAE9003035A2CDE92E
:10348000000428200A21029701F0F8F840F2000019
:10349000C2F200002C2109FB010047F2C8110DF116
:1034A0001205421DC0F600012846FCF7ABFE40F2B3
:1034B0006406C2F20006D6E900302821CDE90004F6
:1034C00014202A46029701F0D9F8D6E900303C21B1
:1034D000CDE9000414204246029701F0CFF8D6E966
:1034E00000301FA2CDE9000414205021029701F002
:1034F000C5F8DAE9003047F29812CDE90004C0F6C9
:10350000000214206421029701F0B8F8DAE90030D3
:1035100047F2A712CDE90004C0F600021420822170
:10352000029701F0ABF80CB0BDE8F087414343458A
:103530005353204752414E54454400004F50454E8E
:10354000494E472E2E2E2E00504C454153452057B4
:103550004149540055534552204C4F434B4552006E
:103560005374617475733A20436C6F736564000023
:10357000704700002DE9F043427B90F80EE090F890
:103580000FC0002900F0E380012917D1C90700F01E
:10359000DE800C2A00F2DB800121914041F2AA5327
:1035A000194200F0C780BEF11F0FC0F0C9800C2A7D
:1035B00040F0CA800CF1010C0122C6E045F6294911
:1035C00045F628474DF20B7821F00103012441F222
:1035D000AA55CCF28F29C0F28F27C0F2A30803E0CE
:1035E0000EF1010E023BD1D00C2A1AD804FA02F6D1
:1035F0002E4209D0BEF11E0F0CD90C2A0ED10CF1AF
:10360000010C01220BE000BF16F4256F24D0BEF19F
:103610001D0F03D80EF1010E03E000BF01324FF081
:10362000010E0C2ADED804FA02F62E420AD0BEF1B0
:103630001F0FD5D30C2A0BD10CF1010C01224FF036
:10364000010ECFE716F4256F10D0BEF11E0FC7D3C1
:1036500001324FF0010EC5E7022AE2D1BEF11B0F85
:103660000ED80EF1010E0222DBE700BF022AB9D10B
:10367000BEF11C0F10D20EF1010E0222B2E700BF04
:10368000BEF11D0F10D0BEF11C0F17D15FEA8C7276
:1036900018D0002231E000BF0AD0BEF11D0F0FD1BB
:1036A0004FF0010E03229DE74FF0010E0322B8E711
:1036B0005FEA8C7210D0002231E000BF0222B0E736
:1036C00002228FE71FFA8CF202FB09F24FEAB206E0
:1036D000BE420BD9012210E01FFA8CF202FB09F264
:1036E0004FEAB206BE4213D9012218E04FEA321265
:1036F00042454FF0000238BF0122002A4FF002027B
:103700004FF01D0E08BF032208BF4FF0010E88E7DF
:103710004FEA321242454FF0000238BF0122002A20
:103720004FF002024FF01D0E08BF032208BF4FF0FA
:10373000010E57E711F4256F4AD0BEF11E0F03D2D8
:103740000EF1010E03E000BF01324FF0010ED1B2C5
:10375000022980F80FC0427380F80EE00CD81722BF
:1037600051434CF21D72C1F67142A1FB02210CF2D1
:10377000CF7240F2D47309E048F63E63C0F2020310
:1037800059430CF5FA62090C40F2D2735FFA8EF7D6
:1037900048F21F546744C5F2EB143B44A2FB0445B6
:1037A00003EB9202A2EB551202EBD512114444F640
:1037B0002512C2F29242A1FB0223CA1A03EB520263
:1037C0009308DB00A3EB9202891A0173BDE8F08332
:1037D000022ABCD1BEF11C0F04D20EF1010E02224E
:1037E000B5E700BF06D0BEF11D0F09D14FF0010EA5
:1037F0000322ACE75FEA8C7104D001211CE000BF1A
:103800000222A4E745F629421FFA8CF1CCF28F225E
:103810004A4345F628434FEAB201C0F28F2399424A
:103820004FF0000108D84DF20A734FEA3212C0F28D
:10383000A3039A4288BF012102224FF01D0E0029E6
:1038400018BF032218BF4FF0010E80E770B50D4678
:103850000446FDF7A5FA064620684168890607D4A4
:10386000FDF79EFA801BB0F57A7FF5D91AE000BF0C
:10387000416841F010014160290C0162A9B2416226
:10388000416821F010014160FDF78AFA054600BF4A
:1038900020684068800607D4FDF782FA401BB0F527
:1038A0007A7FF5D9012070BD002070BD2DE9F0416F
:1038B0008CB0064600200D46002700F005FA40F2C5
:1038C0006C00C2F20000D0E900304FF6E074CDE9A0
:1038D000000430A228200A21029700F0CFFE47F210
:1038E000B7110DF12608C0F6000140463246FCF73C
:1038F00089FC40F20000C2F200002C2105FB01000F
:1039000047F2C8110DF11205421DC0F6000128460C
:10391000FCF778FC40F26406C2F20006D6E90030FB
:103920003C21CDE9000414202A46029700F0A6FEAF
:10393000D6E900302821CDE9000414204246029740
:1039400000F09CFED6E9003016A2CDE90004142058
:103950006421029700F092FED6E9003047F271121E
:10396000CDE90004C0F6000214207D21029700F08A
:1039700085FED6E9003047F26A12CDE90004C0F6B0
:103980000002DC207D21029700F078FE0CB0BDE83B
:10399000F08100BF52455455524E204C4F434B4589
:1039A0005200000041524520594F55205355524571
:1039B000203F0000F0B589B004460020002600F04A
:1039C00083F904AD1EA128462246FCF71BFC40F2F9
:1039D0006C04C2F20004D4E900304FF6E077CDE980
:1039E0000007142014212A46029600F047FED4E96D
:1039F000003016A2CDE9000714204621029600F0FF
:103A00003DFED4E9003015A2CDE9000714208C2139
:103A1000029600F033FE4FF4FA60FDF799F80020AB
:103A200000F052F940F20000C2F2000001210170E2
:103A300040F2D800C2F20000468009B0F0BD00BFDD
:103A40004C6F636B65723A253032640052454C45C9
:103A50004153452053554343455353004C6F636BCB
:103A6000657220697320454D505459206E6F770060
:103A70002DE9F04381B0089C984615460E468146D4
:103A8000FDF78EF9201A00EB0804FDF789F940F2E2
:103A90007401C2F200010968C1F3CB3161430091A6
:103AA000D9F800108A683240921BB2FA82F25209A9
:103AB00095423DD0074618F1010031D0FDF770F96D
:103AC000C01BA04238D2009800990028A1F1010142
:103AD0000091D9F80010896808BF044601EA060081
:103AE000801BB0FA80F040098542E7D120E000BF9A
:103AF00088683040801BB0FA80F04009854217D0BA
:103B000088683040801BB0FA80F0400985420FD0B1
:103B100088683040801BB0FA80F04009854207D0A9
:103B200088683040801BB0FA80F040098542DFD1C0
:103B3000002001B0BDE8F083D9E900014268B1F589
:103B4000827F22F0E00242600BD1D9F80810B1F573
:103B5000004F02D0B1F5806F03D1016821F0400120
:103B60000160D9F82810B1F5005F07D1016821F490
:103B700000510160016841F400510160012089F8A1
:103B80005100002089F85000032001B0BDE8F08307
:103B90002DE9F04F81B0B3EB010C1C4648BFCCF1CE
:103BA000000C131A48BF5B429C4509D916460246D1
:103BB000A1420BD83046A14616460C4608E000BF8D
:103BC000264614460A460146A142F3D910468946C4
:103BD0004FF0FF3B864238BF4FF0010BA14534D375
:103BE000A9EB04011FFA81FA01EBDA3109B2801B5B
:103BF000DDF82880C1F34F0748BF40429C4505B21D
:103C000012D900BFB0B2A1B2424600F021F838B2DA
:103C1000471B38B20134002844BF5E4400EB0A075A
:103C2000A0B24845EED910E0A0B2B1B2424600F0D1
:103C30000FF838B2471B38B20134002844BF5E4445
:103C400000EB0A07A0B24845EED901B0BDE8F08FFD
:103C500010B582B014468209042A98BFA92901D957
:103C600002B010BD02460B4600F0D0FB60BA40F631
:103C70000004C4F20104ADF8060020461021002221
:103C8000FDF788F8204610210022FDF783F804F59F
:103C9000806001210122FDF77DF840F2FC00C2F2B4
:103CA00000000DF1060102224FF0FF33FEF72CFA5F
:103CB000204610210122FDF76DF820461021012237
:103CC000FDF768F802B010BD2DE9F04F81B0054650
:103CD00040F6000B0020002140F23F12A923C4F25D
:103CE000010B4FF0000900F091FB58461021002213
:103CF000FDF750F840F2FC082F0A0BF58066C2F27F
:103D000000080DF1020A00BF002400BF5846102130
:103D100000228DF802708DF80350FDF73BF8304615
:103D200001210122FDF736F84046514602224FF0AC
:103D3000FF33FEF7E9F9584610210122FDF72AF872
:103D4000A92C04F10104E1D3B9F59F7F09F1010920
:103D5000DAD9584610210122FDF71CF801B0BDE860
:103D6000F08F0000F0B585B01420FCF7F1FE40F6AE
:103D70000004C4F2010404F58065284602210022F3
:103D8000FDF708F81420FCF7E3FE28460221012283
:103D90000127FCF7FFFF9620FCF7DAFE3A208DF8AA
:103DA0000000204610210022FCF7F4FF28460121E4
:103DB0000022FCF7EFFF40F2FC06C2F20006694663
:103DC000304601224FF0FF33FEF79EF920461021C6
:103DD0000122FCF7DFFF55208DF80000204610215E
:103DE0000022FCF7D7FF284601210122FCF7D2FF71
:103DF0006946304601224FF0FF33FEF785F9204631
:103E000010210122FCF7C6FFB2208DF800002046E9
:103E100010210022FCF7BEFF284601210022FCF7FA
:103E2000B9FF6946304601224FF0FF33FEF76CF9C7
:103E3000204610210122FCF7ADFF3320019040F60F
:103E40000C40C3F200300090204610210022FCF705
:103E5000A1FF284601210122FCF79CFF694630465C
:103E600005224FF0FF33FEF74FF9204610210122C3
:103E7000FCF790FF36208DF800002046102100222C
:103E8000FCF788FF284601210022FCF783FF6946E2
:103E9000304601224FF0FF33FEF736F9204610215D
:103EA0000122FCF777FFA0208DF8000020461021AA
:103EB0000022FCF76FFF284601210122FCF76AFF70
:103EC0006946304601224FF0FF33FEF71DF92046C8
:103ED00010210122FCF75EFFB7208DF8000020467C
:103EE00010210022FCF756FF284601210022FCF792
:103EF00051FF6946304601224FF0FF33FEF704F9C7
:103F0000204610210122FCF745FF35208DF80000E6
:103F1000204610210022FCF73DFF28460121012206
:103F2000FCF738FF6946304601224FF0FF33FEF7B9
:103F3000EBF8204610210122FCF72CFFBB208DF866
:103F40000000204610210022FCF724FF2846012112
:103F50000022FCF71FFF6946304601224FF0FF3375
:103F6000FEF7D2F8204610210122FCF713FF19209A
:103F70008DF80000204610210022FCF70BFF284698
:103F800001210122FCF706FF6946304601224FF06D
:103F9000FF33FEF7B9F8204610210122FCF7FAFEA4
:103FA000C0208DF80000204610210022FCF7F2FE10
:103FB000284601210022FCF7EDFE69463046012229
:103FC0004FF0FF33FEF7A0F8204610210122FCF746
:103FD000E1FE2C208DF80000204610210022FCF785
:103FE000D9FE284601210122FCF7D4FE694630465D
:103FF00001224FF0FF33FEF787F8204610210122FF
:10400000FCF7C8FEC2208DF80000204610210022D7
:10401000FCF7C0FE284601210022FCF7BBFE6946E2
:10402000304601224FF0FF33FEF76EF82046102194
:104030000122FCF7AFFE2046102100228DF800700F
:10404000FCF7A8FE284601210122FCF7A3FE6946E1
:10405000304601224FF0FF33FEF756F8204610217C
:104060000122FCF797FEC3208DF8000020461021A6
:104070000022FCF78FFE284601210022FCF78AFE71
:104080006946304601224FF0FF33FEF73DF82046E7
:1040900010210122FCF77EFE12208DF80000204640
:1040A00010210022FCF776FE284601210122FCF7B0
:1040B00071FE6946304601224FF0FF33FEF724F8C7
:1040C000204610210122FCF765FEC4208DF8000077
:1040D000204610210022FCF75DFE28460121002227
:1040E000FCF758FE6946304601224FF0FF33FEF7D9
:1040F0000BF8204610210122FCF74CFE20208DF801
:104100000000204610210022FCF744FE2846012131
:104110000122FCF73FFE6946304601224FF0FF3393
:10412000FDF7F2FF204610210122FCF733FEC620E6
:104130008DF80000204610210022FCF72BFE2846B7
:1041400001210022FCF726FE6946304601224FF08D
:10415000FF33FDF7D9FF204610210122FCF71AFE9C
:104160000F208DF80000204610210022FCF712FEDF
:10417000284601210122FCF70DFE69463046012246
:104180004FF0FF33FDF7C0FF204610210122FCF75E
:1041900001FED0208DF80000204610210022FCF7FF
:1041A000F9FD284601210022FCF7F4FD694630465E
:1041B00001224FF0FF33FDF7A7FF20461021012217
:1041C000FCF7E8FDA4208DF8000020461021002215
:1041D000FCF7E0FD284601210122FCF7DBFD6946E2
:1041E000304601224FF0FF33FDF78EFF20461021AD
:1041F0000122FCF7CFFDA1208DF800002046102100
:104200000022FCF7C7FD284601210122FCF7C2FD70
:104210006946304601224FF0FF33FDF775FF204617
:1042200010210122FCF7B6FDE0208DF800002046A9
:1042300010210022FCF7AEFD284601210022FCF7E8
:10424000A9FD6946304601224FF0FF33FDF75CFFC0
:10425000204610210122FCF79DFD42F21F30039001
:1042600041F64C00C0F60D30029042F61330C5F214
:104270003F40019040F2D040C1F20D100090204626
:1042800010210022FCF786FD284601210122FCF7BF
:1042900081FD694630460E224FF0FF33FDF734FFB3
:1042A000204610210122FCF775FDE1208DF8000069
:1042B000204610210022FCF76DFD28460121002236
:1042C000FCF768FD6946304601224FF0FF33FDF7E9
:1042D0001BFF204610210122FCF75CFD42F220303A
:1042E000039042F65170C1F61F70029042F61340DF
:1042F000C4F23F40019040F2D040C1F20C10009057
:10430000204610210022FCF745FD2846012101220C
:10431000FCF740FD694630460E224FF0FF33FDF7B3
:10432000F3FE204610210122FCF734FD21208DF8F8
:104330000000204610210022FCF72CFD2846012118
:104340000022FCF727FD6946304601224FF0FF337B
:10435000FDF7DAFE204610210122FCF71BFD11209B
:104360008DF80000204610210022FCF713FD28469E
:1043700001210022FCF70EFD6946304601224FF074
:10438000FF33FDF7C1FE204610210122FCF702FD9C
:104390007820FCF7DDFB13208DF80000204610216B
:1043A0000022FCF7F7FC284601210022FCF7F2FC72
:1043B0006946304601224FF0FF33FDF7A5FE204647
:1043C00010210122FCF7E6FC29208DF80000204690
:1043D00010210022FCF7DEFC284601210022FCF718
:1043E000D9FC6946304601224FF0FF33FDF78CFEC1
:1043F000204610210122FCF7CDFC3220FCF7A8FB5F
:104400000020FFF761FC05B0F0BD00002DE9F0478A
:1044100084B040F60004C4F2010416460D46074677
:104420002046102100229946FCF7B4FC2A208DF882
:104430000D0020461021002205F1230AFCF7AAFCFA
:1044400004F58065284601210022FCF7A3FC40F218
:10445000FC08C2F200080DF10D01404601224FF0A8
:10446000FF33FDF751FE204610210122FCF792FC9C
:10447000380A8DF80900300A8DF80B00204610210B
:1044800000228DF80A708DF80C60FCF783FC28463A
:1044900001210122FCF77EFC0DF1090140460422B6
:1044A0004FF0FF33FDF730FE20461021012209F1C5
:1044B0002306FCF76FFC2B208DF80E002046102100
:1044C0000022FCF767FC284601210022FCF762FC71
:1044D0000DF10E01404601224FF0FF33FDF714FEAF
:1044E000204610210122FCF755FC4FEA1A208DF8D6
:1044F0000500300A8DF807002046102100228DF8B3
:1045000006A08DF80860FCF745FC28460121012231
:10451000FCF740FC0DF10501404604224FF0FF334B
:10452000FDF7F2FD204610210122FCF733FC2C2080
:104530008DF80F00204610210022FCF72BFC2846A6
:1045400001210022FCF726FC0DF10F01404601225B
:104550004FF0FF33FDF7D8FD204610210122FCF774
:1045600019FC204610210122FCF714FC04B0BDE820
:10457000F08700002DE9F04F85B040F60004C4F24A
:1045800001049046894605462046102100221E4619
:10459000FCF700FCF7B2C6F30726E81909EB0601A1
:1045A0000138013982B28BB228464946FFF72EFF07
:1045B000002E029618BF002F08D12046102101229C
:1045C000FCF7E8FB05B0BDE8F08F00BFDDE90E06A3
:1045D000029A109BA8F1200151434FEA162B40F29A
:1045E000FC0600EB41004FEA1328002104F580652A
:1045F000C2F20006019004E0039902980131814261
:10460000DBD001984FF0000930F811A003911EE0B3
:10461000109810218DF81100204600228DF810808E
:10462000FCF7B8FB284601210122FCF7B3FB30461A
:1046300004A902224FF0FF33FDF766FD204610214A
:104640000122FCF7A7FB09F101094F45D4D00AFA72
:1046500009F00004DCD50F9810218DF813002046D6
:1046600000228DF812B0FCF795FB284601210122AB
:10467000FCF790FB30460DF11201DAE72DE9F04F1F
:1046800085B007460E989246049040F600000D460D
:10469000DDE90F6BC4F20100102100221C46FCF77B
:1046A00079FB9AF800203AB3C4F307285FFA84F93B
:1046B0000AF1010A0FE000BF0498A9B2CDE9000693
:1046C000B8B2D2B22346CDF808B0FFF753FF4F443B
:1046D0001AF8012B82B1B8B24844B0F5A07FEBD3F1
:1046E0004544A8B24044A92806D8D0B220284FF0AB
:1046F0000007E1D1ECE700BF40F60000C4F2010082
:104700001021012205B0BDE8F04FFCF743BB0000CB
:104710007047000070B584B040F2D800C2F20000CB
:1047200040F264044178C2F20004D4E90030042964
:1047300000F28480DFE801F00464344C1C0000BF08
:104740004FF4FC6647F279120025CDE90006C0F669
:1047500000020A2046210295FFF790FFD4E90030BD
:1047600047F2D012CDE90006C0F600020A205EE052
:104770004FF4FC6647F289120025CDE90006C0F629
:104780000002782078210295FFF778FFD4E9003005
:1047900047F2C312CDE90006C0F60002782064E0BB
:1047A0004FF4FC6647F281120025CDE90006C0F601
:1047B0000002E62046210295FFF760FFD4E90030B1
:1047C00047F2D012CDE90006C0F60002E6202EE046
:1047D0004FF4FC6647F285120025CDE90006C0F6CD
:1047E00000020A2078210295FFF748FFD4E9003043
:1047F00047F2D012CDE90006C0F600020A2034E0EC
:104800004FF4FC6647F27D120025CDE90006C0F6A4
:104810000002782046210295FFF730FFD4E90030EE
:1048200047F2D012CDE90006C0F6000278205A21E6
:104830000295FFF723FF04B070BD00BF4FF4FC6684
:1048400047F28D120025CDE90006C0F60002E620F1
:1048500078210295FFF712FFD4E9003047F2D01219
:10486000CDE90006C0F60002E6208C210295FFF794
:1048700005FF04B070BD00002DE9F04784B040F69C
:104880000048C4F201088A46064640464FF480516B
:1048900000224FF00009FCF77DFA802040F2541509
:1048A00040EA4600C2F200058DF8090064240DF1CB
:1048B000090102AA284601230094FDF723FD0DF10A
:1048C0000B010DF10A02284601238DF80B9000948C
:1048D000FDF718FD9DF80A7040464FF48051012203
:1048E000FCF758FA40464FF48051002247EA0A0785
:1048F000FCF750FA7E2000EA46008DF80D000DF11D
:104900000D0103AA284601230094FDF7FBFC0DF1DD
:104910000F010DF10E02284601238DF80F7000944F
:10492000FDF7F0FC40464FF480510122FCF732FACB
:1049300004B0BDE8F0870000FCF738BA704700000B
:10494000FEE7000070B584B000200024FFF7BCF93A
:1049500040F26C00C2F20000D0E900304FF6E07582
:10496000CDE9000527A21E200A210294FFF786FE4A
:104970004FF6FF760A2028214FF496721E230096E8
:10498000FFF706F940F26406C2F20006D6E90030ED
:1049900020A2CDE900050A203C210294FFF76EFE1B
:1049A000D6E900301EA2CDE900050A205A21029462
:1049B000FFF764FED6E900301BA2CDE900050A200E
:1049C00078210294FFF75AFED6E900301AA2CDE909
:1049D00000050A2096210294FFF750FE4FF4FA607A
:1049E000FCF7B6F80020FFF76FF940F20000C2F2C2
:1049F00000000121017040F2D800C2F20000847072
:104A000004B070BD4143434553532044454E49458E
:104A1000440000004C6F636B65723A203035000033
:104A20004F776E65723A20004E677579656E204E3D
:104A3000677579656E0000002D2D2D4261636B2036
:104A4000486F6D65204D656E752D2D2D00000000A1
:104A500096B0FCF7B9F9092000240C904FF480308F
:104A60000225CDE90D04CDE913504FF4E0100121EA
:104A700015900CA81194CDE90F44CDE9054410918F
:104A80001291FCF72DFC28B1EFF3108072B600BF35
:104A9000FEE700BF0F20CDE907054FF48060CDE9A8
:104AA0000A0407A802210994FCF728FB20B1EFF3C0
:104AB000108072B6FEE700BF4FF40070012704902B
:104AC00003A80397FCF798FA20B1EFF3108072B6B1
:104AD000FEE700BF002541F21800CDE90E55CDE9F3
:104AE0000C55C4F20200016840F6000A41F01001C2
:104AF00001600168C4F2010A01F0100107910799F1
:104B00000168002241F020010160016841F218367D
:104B100001F0200107910799016841F0040101604B
:104B2000016801F0040107910799016841F008014B
:104B30000160006841F2183100F008000790079802
:104B40005046FCF727F90AF5806B584641F20101FF
:104B5000002241F20108FCF71DF9CDE90C670CAE0B
:104B60000224504631460E950F94FCF705F858463E
:104B70003146CDE90C87CDE90E54FBF7FDFF4FF42C
:104B80000C40CDE90C05504631460E95FBF7F4FF7D
:104B900008200CA9A1C158463146FBF7EDFF40F6AD
:104BA000010040F2D807C2F21360C2F2000707907A
:104BB000AAF56041384640F8101F4FF0FF314FF41E
:104BC0008072CDE90C55C0E90112FCF70DFF28B148
:104BD000EFF3108072B600BFFEE700BF43F208009B
:104BE00007F11006ADF80C0003A9304601228DF83C
:104BF0000E50FDF725F928B1EFF3108072B600BF13
:104C0000FEE700BF07A930460122FDF71DF828B1D5
:104C1000EFF3108072B600BFFEE700BF0CA930466C
:104C20000122FCF77DFF28B1EFF3108072B600BFC0
:104C3000FEE700BF0AF52051384640F8241F4FF424
:104C4000827900254FF400780A26C0E90195C0E971
:104C50000355C0E90558C0E90755C0E90955C662C2
:104C6000FDF798F920B1EFF3108072B6FEE700BFB0
:104C700040F25410AAF55041C2F20000C0E90019F8
:104C8000C0E90255C0E90455C0E90685C0E90855E8
:104C9000C0E90A56FDF77EF920B1EFF3108072B635
:104CA000FEE700BF00204FF00008FFF70DF8FFF708
:104CB00059F8FDF7F9FC40F26C04C2F20004D4E9A3
:104CC00000304FF6E07547F25012CDE90005C0F60E
:104CD00000023C200A21CDF80880FFF7CFFCD4E980
:104CE000003047F23F12CDE90005C0F6000228204F
:104CF0003C21CDF80880FFF7C1FCD4E9003047F231
:104D00005D12CDE90005C0F600023C206E21CDF811
:104D10000880FFF7B3FC4FF4FA60FBF719FF00209F
:104D2000FEF7D2FF40F2000940F26405C2F200092A
:104D30000120C2F200054FF4FC6489F80000A7F8D6
:104D4000028007E0FFF7E6FCFEF718F8FBF774FDBA
:104D500099F8000060B350464FF48061FCF714F8F6
:104D600070B978780130C0B2FBF724FE7878042857
:104D70009CBF01307870FFF7CDFC6420FBF7E8FEA4
:104D800050464FF40061FBF7FFFF0028DAD1787836
:104D90000130C0B2FBF70EFE787800281CBF013846
:104DA0007870FFF7B7FC6420FBF7D2FECAE700BFBC
:104DB000B87828B307F1090626203146FDF7B0FD83
:104DC000002840F02B813046FDF71EFC002840F003
:104DD0002581787A99F80110814267D199F80210FB
:104DE000BA7A914262D199F80310FA7A91425DD170
:104DF00099F804103A7B914258D100266EE000BF2A
:104E0000F87878B1FEF780F9B979D5E9003009B3BF
:104E100047F26A12CDE90004DC207D21C0F60002D1
:104E200020E000BF3879002868D0FEF7B5F840F2DE
:104E30006C00F979C2F20000D0E90030002971D08D
:104E400047F2A712CDE9000414208221C0F6000227
:104E500070E000BF47F27112CDE9000414207D21FB
:104E6000C0F60002CDF80880FFF708FC50464FF46A
:104E70000041FBF789FF002840F0BC80B879012889
:104E800000F08080002840F0B5800020FEF71CFF75
:104E9000787839780130C0B2FEF79CFA012089F8A1
:104EA0000080A7F802803871A4E000BF99F82D10A7
:104EB000814240F0B38099F82E00B97A884240F0E0
:104EC000AD8099F82F00F97A884240F0A78099F8D0
:104ED0003000397B884240F0A18001264FF4807079
:104EE000788000203E70FEF7EFFE78783146013082
:104EF000C0B2FBF713FC99F800002BE77879002883
:104F000000F08C80FEF7B2F9397AD5E9003000293B
:104F100044D047F26A12CDE90004DC207D21C0F6BE
:104F2000000243E047F29812CDE900041420642106
:104F3000C0F60002CDF80880FFF7A0FB50464FF402
:104F40000041FBF721FF002854D1F879012835D022
:104F500000284FD10020FEF7B7FE50464FF4805195
:104F60000022FBF717FF0020FEF7AEFE40F6B83038
:104F7000FBF7EEFD012089F8000087F8028087F832
:104F8000048037E00020FEF79FFEFDF7F7FE0120CA
:104F900089F80000A7F802802CE000BF47F27112E8
:104FA000CDE9000414207D21C0F60002CDF8088070
:104FB000FFF764FBFBF7B4FC1CE000BF0020FEF72A
:104FC00083FE787839780130C0B2FEF76FFCD5E9FE
:104FD000003047F27112CDE9000414207D21C0F6A3
:104FE000000287F80880CDF80880FFF747FB4FF4F0
:104FF0008070B88058460821FBF7C6FE70B90020C3
:10500000FEF762FEFDF7BAFE012089F80000C7F83E
:105010000280A7F8068087F8088000BF99F8000092
:1050200098E630380A2801D20120704700207047E6
:105030000400000800000000000000020001000061
:105040001000000000000000000102030406070831
:10505000090000000001020304000000000000003D
:105060000000000000000000000000000000000040
:105070000000000000000000000000000000000030
:10508000000C000C000C000C000C000C000C000CC0
:10509000000C000C000C0000000C000C00000000D4
:1050A00000000000001B001B001B001B001B000079
:1050B00000000000000000000000000000000000F0
:1050C000000000000000000080198019801980197C
:1050D000C07FC07F80190033C07FC07F00330033A2
:1050E000003300330000000000000000001E003FFD
:1050F000807580650074003C001E00078005806597
:1051000080658075003F001E000400040000000060
:10511000007000D840D8C0D880D900730006000CB9
:10512000801BC036C066C046C00680030000000079
:1051300000000000001E003F003300330033001E5B
:10514000000CC03CC066806380618063C03E801CF0
:105150000000000000000000000C000C000C000C1F
:10516000000C000000000000000000000000000033
:1051700000000000000000000000800000010003AB
:10518000000600060004000C000C000C000C000CD3
:10519000000C00040006000600030001800000204F
:1051A00000100018000C000C0004000600060006A9
:1051B0000006000600060004000C000C0018001099
:1051C00000200000000C002D003F001E00330000F6
:1051D00000000000000000000000000000000000CF
:1051E000000000000000000000000000000C000CA7
:1051F000000C000CC0FFC0FF000C000C000C000CE9
:10520000000000000000000000000000000000009E
:10521000000000000000000000000000000000008E
:1052200000000000000C000C000400040008000056
:10523000000000000000000000000000000000006E
:10524000001E001E00000000000000000000000022
:10525000000000000000000000000000000000004E
:10526000000000000000000000000000000C000C26
:10527000000000000000000000030003000300061F
:10528000000600060006000C000C000C000C0018C4
:10529000001800180000000000000000001E003F81
:1052A0000033806180618061806D806D806180618C
:1052B00080610033003F001E00000000000000007D
:1052C0000006000E001E003600260006000600063E
:1052D00000060006000600060006000600000000AA
:1052E00000000000001E003F80738061806180012B
:1052F00000030006000C001800300060807F807FF3
:105300000000000000000000001C003E006300637D
:105310000003000E000E0003800180018061807395
:10532000003F001E00000000000000000006000E0C
:10533000000E001E001E0016003600360066807F3C
:10534000807F00060006000600000000000000004C
:10535000007F007F006000600060006E007F80635F
:105360008001800180618073003F001E000000000A
:1053700000000000001E003F803380610060006E6E
:10538000007F80738061806180618033003F001EF8
:105390000000000000000000807F807F800100038B
:1053A000000300060006000C000C000C00080018AA
:1053B000001800180000000000000000001E003F60
:1053C0008063806180610021001E003F80618061F8
:1053D00080618061003F001E0000000000000000AE
:1053E000001E003F00738061806180618073803F98
:1053F000801D800180610073003F001E00000000DE
:10540000000000000000000000000000000C000C84
:10541000000000000000000000000000000C000C74
:10542000000000000000000000000000000000007C
:105430000000000C000C0000000000000000000054
:10544000000C000C00040004000800000000000034
:10545000000080008003000E003800600038000E5D
:105460008003800000000000000000000000000039
:105470000000000000000000807F807F000000002E
:10548000807F807F0000000000000000000000001E
:105490000000000000000000000000400070001C40
:1054A000000780010007001C0070004000000000A1
:1054B0000000000000000000001F803FC071C060BD
:1054C000C000C00180030007000E000C000C0000AB
:1054D000000C000C0000000000000000001E003F57
:1054E000803180718063806F806D806D806F806798
:1054F00000600032003E001C0000000000000000C0
:10550000000E000E001B001B001B001B80318031B1
:10551000803F803F8031C060C060C06000000000FC
:1055200000000000007C007E0063006300630063F5
:10553000007E007E0063806180618063007F007E6A
:105540000000000000000000001E003F803180616C
:105550000060006000600060006000608061803179
:10556000003F001E0000000000000000007C007FE3
:10557000006380638061806180618061806180619F
:1055800000630063007E007C00000000000000005B
:10559000807F807F0060006000600060007F007F8F
:1055A0000060006000600060807F807F000000007D
:1055B00000000000807F807F00600060006000606D
:1055C000007F007F0060006000600060006000609D
:1055D0000000000000000000001E003F80318061DC
:1055E0000060006000608063806380618061803162
:1055F000803F001E0000000000000000806180610C
:105600008061806180618061807F807F8061806156
:105610008061806180618061000000000000000006
:10562000003F003F000C000C000C000C000C000CB4
:10563000000C000C000C000C003F003F00000000BC
:105640000000000080018001800180018001800154
:10565000800180018001806180618073003F001EB5
:105660000000000000000000C06080610063006670
:105670000066006C0078007C006600660063806154
:105680008061C06000000000000000000060006059
:10569000006000600060006000600060006000600A
:1056A00000600060807F807F00000000000000003C
:1056B000C071C071C07BC07AC06AC06AC06EC0646D
:1056C000C060C060C060C060C060C060000000001A
:1056D0000000000080718071807980798079806D10
:1056E000806D806D80658067806780678063806380
:1056F0000000000000000000001E003F0033806139
:10570000806180618061806180618061806100333F
:10571000003F001E0000000000000000007E007F2F
:1057200080638061806180618063007F007E0060B3
:1057300000600060006000600000000000000000E9
:10574000001E003F00338061806180618061806164
:105750008061806580670033803F401E000000004C
:1057600000000000007E007F8063806180618063B4
:10577000007F007E00660063006380618061C0601E
:105780000000000000000000000E001F803180318A
:1057900000300038001E0007800380618061803186
:1057A000003F001E0000000000000000C0FFC0FF1E
:1057B000000C000C000C000C000C000C000C000C89
:1057C000000C000C000C000C0000000000000000A9
:1057D00080618061806180618061806180618061C1
:1057E0008061806180618073003F001E00000000C6
:1057F00000000000C060C060C06080318031803136
:10580000001B001B001B001B000E000E000E0004FE
:105810000000000000000000C0C0C0C0C0C0C0C088
:10582000C0C0C0CC804C804C805E8052805280735F
:10583000806180610000000000000000C0C0806046
:1058400080610033003B001E000C000C001E001F96
:10585000003B80718061C0C00000000000000000BB
:10586000C0C08061806100330033001E001E000C48
:10587000000C000C000C000C000C000C00000000E0
:1058800000000000803F803F80010003000300060D
:10589000000C000C0018001800300060807F807F32
:1058A000000000000000000F000F000C000C000CB6
:1058B000000C000C000C000C000C000C000C000C88
:1058C000000C000C000C000F000F00000018001866
:1058D0000018000C000C000C000C0006000600066E
:1058E0000006000300030003000000000000001E8B
:1058F000001E000600060006000600060006000660
:105900000006000600060006000600060006001E4F
:10591000001E0000000C000C001E001200330033BB
:1059200080618061000000000000000000000000B5
:105930000000000000000000000000000000000067
:105940000000000000000000000000000000000057
:10595000000000000000E0FF000000000038001818
:10596000000C00000000000000000000000000002B
:105970000000000000000000000000000000000027
:105980000000000000000000001F803F80618001D7
:10599000801F803F80618063807FC03800000000EE
:1059A000000000000060006000600060006E007F8A
:1059B000807380618061806180618073007F006E90
:1059C00000000000000000000000000000000000D7
:1059D000001E003F80738061006000608061807302
:1059E000003F001E00000000000000008001800158
:1059F00080018001801D803F8073806180618061B3
:105A000080618073803F801D000000000000000066
:105A10000000000000000000001E003F00738061D5
:105A2000807F807F00608071003F001E00000000CA
:105A300000000000C007C00F000C000C807F807FBA
:105A4000000C000C000C000C000C000C000C000CF6
:105A50000000000000000000000000000000801DA9
:105A6000803F807380618061806180618073803F4E
:105A7000801D80018063007F003E000000600060A8
:105A800000600060006F807F807180618061806154
:105A90008061806180618061000000000000000082
:105AA0000006000600000000003E003E0006000662
:105AB00000060006000600060006000600000000C2
:105AC00000000006000600000000003E003E000648
:105AD0000006000600060006000600060006000696
